{
  "contractName": "HelloWorld",
  "abi": [
    {
      "inputs": [],
      "name": "test",
      "outputs": [
        {
          "internalType": "string",
          "name": "",
          "type": "string"
        }
      ],
      "stateMutability": "pure",
      "type": "function"
    },
    {
      "inputs": [],
      "name": "test1",
      "outputs": [
        {
          "internalType": "string",
          "name": "",
          "type": "string"
        }
      ],
      "stateMutability": "nonpayable",
      "type": "function"
    },
    {
      "inputs": [
        {
          "internalType": "string",
          "name": "s",
          "type": "string"
        }
      ],
      "name": "echo",
      "outputs": [
        {
          "internalType": "string",
          "name": "",
          "type": "string"
        }
      ],
      "stateMutability": "nonpayable",
      "type": "function"
    },
    {
      "inputs": [
        {
          "internalType": "uint256",
          "name": "a",
          "type": "uint256"
        },
        {
          "internalType": "uint256",
          "name": "b",
          "type": "uint256"
        }
      ],
      "name": "mulAToB",
      "outputs": [
        {
          "internalType": "uint256",
          "name": "",
          "type": "uint256"
        }
      ],
      "stateMutability": "pure",
      "type": "function"
    }
  ],
  "bytecode": "0x608060405234801561001057600080fd5b50610533806100206000396000f3fe608060405234801561001057600080fd5b506004361061004c5760003560e01c80636b59084d146100515780637f2392511461006f578063f15da7291461009f578063f8a8fd6d146100cf575b600080fd5b6100596100ed565b6040516100669190610220565b60405180910390f35b6100896004803603810190610084919061028c565b61012a565b60405161009691906102db565b60405180910390f35b6100b960048036038101906100b4919061042b565b610140565b6040516100c69190610220565b60405180910390f35b6100d761014a565b6040516100e49190610220565b60405180910390f35b60606040518060400160405280600c81526020017f48656c6c6f20776f726c64310000000000000000000000000000000000000000815250905090565b6000818361013891906104a3565b905092915050565b6060819050919050565b60606040518060400160405280600b81526020017f48656c6c6f20776f726c64000000000000000000000000000000000000000000815250905090565b600081519050919050565b600082825260208201905092915050565b60005b838110156101c15780820151818401526020810190506101a6565b838111156101d0576000848401525b50505050565b6000601f19601f8301169050919050565b60006101f282610187565b6101fc8185610192565b935061020c8185602086016101a3565b610215816101d6565b840191505092915050565b6000602082019050818103600083015261023a81846101e7565b905092915050565b6000604051905090565b600080fd5b600080fd5b6000819050919050565b61026981610256565b811461027457600080fd5b50565b60008135905061028681610260565b92915050565b600080604083850312156102a3576102a261024c565b5b60006102b185828601610277565b92505060206102c285828601610277565b9150509250929050565b6102d581610256565b82525050565b60006020820190506102f060008301846102cc565b92915050565b600080fd5b600080fd5b7f4e487b7100000000000000000000000000000000000000000000000000000000600052604160045260246000fd5b610338826101d6565b810181811067ffffffffffffffff8211171561035757610356610300565b5b80604052505050565b600061036a610242565b9050610376828261032f565b919050565b600067ffffffffffffffff82111561039657610395610300565b5b61039f826101d6565b9050602081019050919050565b82818337600083830152505050565b60006103ce6103c98461037b565b610360565b9050828152602081018484840111156103ea576103e96102fb565b5b6103f58482856103ac565b509392505050565b600082601f830112610412576104116102f6565b5b81356104228482602086016103bb565b91505092915050565b6000602082840312156104415761044061024c565b5b600082013567ffffffffffffffff81111561045f5761045e610251565b5b61046b848285016103fd565b91505092915050565b7f4e487b7100000000000000000000000000000000000000000000000000000000600052601160045260246000fd5b60006104ae82610256565b91506104b983610256565b9250817fffffffffffffffffffffffffffffffffffffffffffffffffffffffffffffffff04831182151516156104f2576104f1610474565b5b82820290509291505056fea2646970667358221220d5baf367b5ec7aa91db7c3bd0dc0d6319c6e3dc1fd9116a5998b16f544b9212264736f6c634300080d0033",
  "immutableReferences": {},
  "source": "// SPDX-License-Identifier: MIT\npragma solidity >=0.4.22 <0.9.0;\n\ncontract HelloWorld {\n\n  function test() public pure returns (string memory) {\n    return \"Hello world\";\n  }\n\n  function test1() public returns (string memory) {\n    return \"Hello world1\";\n  }\n\n  function echo(string memory s) public returns (string memory) {\n    return s;\n  }\n\n  function mulAToB(uint a, uint b) public pure returns (uint) {\n    return a * b;\n  }\n}\n",
  "sourcePath": "/Users/lpf/Documents/workspace/eth/truffle-learn/contracts/HelloWorld.sol",
  "compiler": {
    "name": "solc",
    "version": "0.8.13+commit.abaa5c0e.Emscripten.clang"
  },
  "schemaVersion": "3.4.7",
  "updatedAt": "2022-05-15T00:54:05.150Z",
  "devdoc": {
    "kind": "dev",
    "methods": {},
    "version": 1
  },
  "userdoc": {
    "kind": "user",
    "methods": {},
    "version": 1
  }
}