{
  "contractName": "Token",
  "abi": [
    {
      "inputs": [],
      "stateMutability": "nonpayable",
      "type": "constructor"
    },
    {
      "inputs": [
        {
          "internalType": "address",
          "name": "",
          "type": "address"
        }
      ],
      "name": "balances",
      "outputs": [
        {
          "internalType": "uint256",
          "name": "",
          "type": "uint256"
        }
      ],
      "stateMutability": "view",
      "type": "function",
      "constant": true
    },
    {
      "inputs": [
        {
          "internalType": "address",
          "name": "_to",
          "type": "address"
        },
        {
          "internalType": "uint256",
          "name": "_amount",
          "type": "uint256"
        }
      ],
      "name": "transfer",
      "outputs": [],
      "stateMutability": "nonpayable",
      "type": "function"
    },
    {
      "inputs": [
        {
          "internalType": "address",
          "name": "_owner",
          "type": "address"
        }
      ],
      "name": "getBalances",
      "outputs": [
        {
          "internalType": "uint256",
          "name": "",
          "type": "uint256"
        }
      ],
      "stateMutability": "view",
      "type": "function",
      "constant": true
    }
  ],
  "bytecode": "0x60806040526201e24060005534801561001757600080fd5b50600054600160003373ffffffffffffffffffffffffffffffffffffffff1673ffffffffffffffffffffffffffffffffffffffff168152602001908152602001600020819055506104718061006d6000396000f3fe608060405234801561001057600080fd5b50600436106100415760003560e01c806327e235e314610046578063a9059cbb14610076578063c84aae1714610092575b600080fd5b610060600480360381019061005b9190610286565b6100c2565b60405161006d91906102cc565b60405180910390f35b610090600480360381019061008b9190610313565b6100da565b005b6100ac60048036038101906100a79190610286565b6101da565b6040516100b991906102cc565b60405180910390f35b60016020528060005260406000206000915090505481565b80600160003373ffffffffffffffffffffffffffffffffffffffff1673ffffffffffffffffffffffffffffffffffffffff16815260200190815260200160002054101561012a57610129610353565b5b80600160003373ffffffffffffffffffffffffffffffffffffffff1673ffffffffffffffffffffffffffffffffffffffff168152602001908152602001600020600082825461017991906103b1565b9250508190555080600160008473ffffffffffffffffffffffffffffffffffffffff1673ffffffffffffffffffffffffffffffffffffffff16815260200190815260200160002060008282546101cf91906103e5565b925050819055505050565b6000600160008373ffffffffffffffffffffffffffffffffffffffff1673ffffffffffffffffffffffffffffffffffffffff168152602001908152602001600020549050919050565b600080fd5b600073ffffffffffffffffffffffffffffffffffffffff82169050919050565b600061025382610228565b9050919050565b61026381610248565b811461026e57600080fd5b50565b6000813590506102808161025a565b92915050565b60006020828403121561029c5761029b610223565b5b60006102aa84828501610271565b91505092915050565b6000819050919050565b6102c6816102b3565b82525050565b60006020820190506102e160008301846102bd565b92915050565b6102f0816102b3565b81146102fb57600080fd5b50565b60008135905061030d816102e7565b92915050565b6000806040838503121561032a57610329610223565b5b600061033885828601610271565b9250506020610349858286016102fe565b9150509250929050565b7f4e487b7100000000000000000000000000000000000000000000000000000000600052600160045260246000fd5b7f4e487b7100000000000000000000000000000000000000000000000000000000600052601160045260246000fd5b60006103bc826102b3565b91506103c7836102b3565b9250828210156103da576103d9610382565b5b828203905092915050565b60006103f0826102b3565b91506103fb836102b3565b9250827fffffffffffffffffffffffffffffffffffffffffffffffffffffffffffffffff038211156104305761042f610382565b5b82820190509291505056fea2646970667358221220f895cbba9b685a0cd568874266350ad8c5a637b6de81875273b8bb941b4a660064736f6c634300080d0033",
  "immutableReferences": {},
  "source": "// SPDX-License-Identifier: MIT\npragma solidity >=0.4.22 <0.9.0;\n\ncontract Token {\n\n  uint256 INITIAL_SUPPLY = 123456;\n  mapping (address => uint256) public balances;\n  constructor() {\n    balances[msg.sender] = INITIAL_SUPPLY;\n  }\n\n  function transfer(address _to, uint256 _amount) public {\n    assert(balances[msg.sender] >= _amount);\n    balances[msg.sender] -= _amount;\n    balances[_to] += _amount;\n  }\n\n  function getBalances(address _owner) public view returns (uint256) {\n    return balances[_owner];\n  }\n\n}\n",
  "sourcePath": "/Users/lpf/Documents/workspace/eth/truffle-learn/contracts/Token.sol",
  "compiler": {
    "name": "solc",
    "version": "0.8.13+commit.abaa5c0e.Emscripten.clang"
  },
  "schemaVersion": "3.4.7",
  "updatedAt": "2022-05-13T07:42:06.289Z",
  "networkType": "ethereum",
  "devdoc": {
    "kind": "dev",
    "methods": {},
    "version": 1
  },
  "userdoc": {
    "kind": "user",
    "methods": {},
    "version": 1
  }
}